{
  "address": "0xD406eF5464c415460d8727d3D0e45c831400315F",
  "abi": [
    {
      "inputs": [
        {
          "internalType": "string",
          "name": "_name",
          "type": "string"
        },
        {
          "internalType": "string",
          "name": "_symbol",
          "type": "string"
        },
        {
          "internalType": "address",
          "name": "_lzEndpoint",
          "type": "address"
        }
      ],
      "stateMutability": "nonpayable",
      "type": "constructor"
    },
    {
      "anonymous": false,
      "inputs": [
        {
          "indexed": true,
          "internalType": "address",
          "name": "owner",
          "type": "address"
        },
        {
          "indexed": true,
          "internalType": "address",
          "name": "spender",
          "type": "address"
        },
        {
          "indexed": false,
          "internalType": "uint256",
          "name": "value",
          "type": "uint256"
        }
      ],
      "name": "Approval",
      "type": "event"
    },
    {
      "anonymous": false,
      "inputs": [
        {
          "indexed": false,
          "internalType": "uint16",
          "name": "_srcChainId",
          "type": "uint16"
        },
        {
          "indexed": false,
          "internalType": "bytes",
          "name": "_srcAddress",
          "type": "bytes"
        },
        {
          "indexed": false,
          "internalType": "uint64",
          "name": "_nonce",
          "type": "uint64"
        },
        {
          "indexed": false,
          "internalType": "bytes",
          "name": "_payload",
          "type": "bytes"
        },
        {
          "indexed": false,
          "internalType": "bytes",
          "name": "_reason",
          "type": "bytes"
        }
      ],
      "name": "MessageFailed",
      "type": "event"
    },
    {
      "anonymous": false,
      "inputs": [
        {
          "indexed": true,
          "internalType": "address",
          "name": "previousOwner",
          "type": "address"
        },
        {
          "indexed": true,
          "internalType": "address",
          "name": "newOwner",
          "type": "address"
        }
      ],
      "name": "OwnershipTransferred",
      "type": "event"
    },
    {
      "anonymous": false,
      "inputs": [
        {
          "indexed": true,
          "internalType": "uint16",
          "name": "_srcChainId",
          "type": "uint16"
        },
        {
          "indexed": false,
          "internalType": "bytes",
          "name": "_fromAddress",
          "type": "bytes"
        },
        {
          "indexed": true,
          "internalType": "address",
          "name": "_to",
          "type": "address"
        },
        {
          "indexed": false,
          "internalType": "uint256",
          "name": "_amount",
          "type": "uint256"
        }
      ],
      "name": "ReceiveFromChain",
      "type": "event"
    },
    {
      "anonymous": false,
      "inputs": [
        {
          "indexed": false,
          "internalType": "uint16",
          "name": "_srcChainId",
          "type": "uint16"
        },
        {
          "indexed": false,
          "internalType": "bytes",
          "name": "_srcAddress",
          "type": "bytes"
        },
        {
          "indexed": false,
          "internalType": "uint64",
          "name": "_nonce",
          "type": "uint64"
        },
        {
          "indexed": false,
          "internalType": "bytes32",
          "name": "_payloadHash",
          "type": "bytes32"
        }
      ],
      "name": "RetryMessageSuccess",
      "type": "event"
    },
    {
      "anonymous": false,
      "inputs": [
        {
          "indexed": true,
          "internalType": "uint16",
          "name": "_dstChainId",
          "type": "uint16"
        },
        {
          "indexed": true,
          "internalType": "address",
          "name": "_from",
          "type": "address"
        },
        {
          "indexed": true,
          "internalType": "bytes",
          "name": "_toAddress",
          "type": "bytes"
        },
        {
          "indexed": false,
          "internalType": "uint256",
          "name": "_amount",
          "type": "uint256"
        }
      ],
      "name": "SendToChain",
      "type": "event"
    },
    {
      "anonymous": false,
      "inputs": [
        {
          "indexed": false,
          "internalType": "uint16",
          "name": "_dstChainId",
          "type": "uint16"
        },
        {
          "indexed": false,
          "internalType": "uint16",
          "name": "_type",
          "type": "uint16"
        },
        {
          "indexed": false,
          "internalType": "uint256",
          "name": "_minDstGas",
          "type": "uint256"
        }
      ],
      "name": "SetMinDstGas",
      "type": "event"
    },
    {
      "anonymous": false,
      "inputs": [
        {
          "indexed": false,
          "internalType": "address",
          "name": "precrime",
          "type": "address"
        }
      ],
      "name": "SetPrecrime",
      "type": "event"
    },
    {
      "anonymous": false,
      "inputs": [
        {
          "indexed": false,
          "internalType": "uint16",
          "name": "_remoteChainId",
          "type": "uint16"
        },
        {
          "indexed": false,
          "internalType": "bytes",
          "name": "_path",
          "type": "bytes"
        }
      ],
      "name": "SetTrustedRemote",
      "type": "event"
    },
    {
      "anonymous": false,
      "inputs": [
        {
          "indexed": false,
          "internalType": "uint16",
          "name": "_remoteChainId",
          "type": "uint16"
        },
        {
          "indexed": false,
          "internalType": "bytes",
          "name": "_remoteAddress",
          "type": "bytes"
        }
      ],
      "name": "SetTrustedRemoteAddress",
      "type": "event"
    },
    {
      "anonymous": false,
      "inputs": [
        {
          "indexed": false,
          "internalType": "bool",
          "name": "_useCustomAdapterParams",
          "type": "bool"
        }
      ],
      "name": "SetUseCustomAdapterParams",
      "type": "event"
    },
    {
      "anonymous": false,
      "inputs": [
        {
          "indexed": true,
          "internalType": "address",
          "name": "from",
          "type": "address"
        },
        {
          "indexed": true,
          "internalType": "address",
          "name": "to",
          "type": "address"
        },
        {
          "indexed": false,
          "internalType": "uint256",
          "name": "value",
          "type": "uint256"
        }
      ],
      "name": "Transfer",
      "type": "event"
    },
    {
      "inputs": [],
      "name": "NO_EXTRA_GAS",
      "outputs": [
        {
          "internalType": "uint256",
          "name": "",
          "type": "uint256"
        }
      ],
      "stateMutability": "view",
      "type": "function"
    },
    {
      "inputs": [],
      "name": "PT_SEND",
      "outputs": [
        {
          "internalType": "uint16",
          "name": "",
          "type": "uint16"
        }
      ],
      "stateMutability": "view",
      "type": "function"
    },
    {
      "inputs": [
        {
          "internalType": "address",
          "name": "owner",
          "type": "address"
        },
        {
          "internalType": "address",
          "name": "spender",
          "type": "address"
        }
      ],
      "name": "allowance",
      "outputs": [
        {
          "internalType": "uint256",
          "name": "",
          "type": "uint256"
        }
      ],
      "stateMutability": "view",
      "type": "function"
    },
    {
      "inputs": [
        {
          "internalType": "address",
          "name": "spender",
          "type": "address"
        },
        {
          "internalType": "uint256",
          "name": "amount",
          "type": "uint256"
        }
      ],
      "name": "approve",
      "outputs": [
        {
          "internalType": "bool",
          "name": "",
          "type": "bool"
        }
      ],
      "stateMutability": "nonpayable",
      "type": "function"
    },
    {
      "inputs": [
        {
          "internalType": "address",
          "name": "account",
          "type": "address"
        }
      ],
      "name": "balanceOf",
      "outputs": [
        {
          "internalType": "uint256",
          "name": "",
          "type": "uint256"
        }
      ],
      "stateMutability": "view",
      "type": "function"
    },
    {
      "inputs": [],
      "name": "circulatingSupply",
      "outputs": [
        {
          "internalType": "uint256",
          "name": "",
          "type": "uint256"
        }
      ],
      "stateMutability": "view",
      "type": "function"
    },
    {
      "inputs": [],
      "name": "decimals",
      "outputs": [
        {
          "internalType": "uint8",
          "name": "",
          "type": "uint8"
        }
      ],
      "stateMutability": "view",
      "type": "function"
    },
    {
      "inputs": [
        {
          "internalType": "address",
          "name": "spender",
          "type": "address"
        },
        {
          "internalType": "uint256",
          "name": "subtractedValue",
          "type": "uint256"
        }
      ],
      "name": "decreaseAllowance",
      "outputs": [
        {
          "internalType": "bool",
          "name": "",
          "type": "bool"
        }
      ],
      "stateMutability": "nonpayable",
      "type": "function"
    },
    {
      "inputs": [
        {
          "internalType": "uint16",
          "name": "_dstChainId",
          "type": "uint16"
        },
        {
          "internalType": "bytes",
          "name": "_toAddress",
          "type": "bytes"
        },
        {
          "internalType": "uint256",
          "name": "_amount",
          "type": "uint256"
        },
        {
          "internalType": "bool",
          "name": "_useZro",
          "type": "bool"
        },
        {
          "internalType": "bytes",
          "name": "_adapterParams",
          "type": "bytes"
        }
      ],
      "name": "estimateSendFee",
      "outputs": [
        {
          "internalType": "uint256",
          "name": "nativeFee",
          "type": "uint256"
        },
        {
          "internalType": "uint256",
          "name": "zroFee",
          "type": "uint256"
        }
      ],
      "stateMutability": "view",
      "type": "function"
    },
    {
      "inputs": [
        {
          "internalType": "uint16",
          "name": "",
          "type": "uint16"
        },
        {
          "internalType": "bytes",
          "name": "",
          "type": "bytes"
        },
        {
          "internalType": "uint64",
          "name": "",
          "type": "uint64"
        }
      ],
      "name": "failedMessages",
      "outputs": [
        {
          "internalType": "bytes32",
          "name": "",
          "type": "bytes32"
        }
      ],
      "stateMutability": "view",
      "type": "function"
    },
    {
      "inputs": [
        {
          "internalType": "uint16",
          "name": "_srcChainId",
          "type": "uint16"
        },
        {
          "internalType": "bytes",
          "name": "_srcAddress",
          "type": "bytes"
        }
      ],
      "name": "forceResumeReceive",
      "outputs": [],
      "stateMutability": "nonpayable",
      "type": "function"
    },
    {
      "inputs": [
        {
          "internalType": "uint16",
          "name": "_version",
          "type": "uint16"
        },
        {
          "internalType": "uint16",
          "name": "_chainId",
          "type": "uint16"
        },
        {
          "internalType": "address",
          "name": "",
          "type": "address"
        },
        {
          "internalType": "uint256",
          "name": "_configType",
          "type": "uint256"
        }
      ],
      "name": "getConfig",
      "outputs": [
        {
          "internalType": "bytes",
          "name": "",
          "type": "bytes"
        }
      ],
      "stateMutability": "view",
      "type": "function"
    },
    {
      "inputs": [
        {
          "internalType": "uint16",
          "name": "_remoteChainId",
          "type": "uint16"
        }
      ],
      "name": "getTrustedRemoteAddress",
      "outputs": [
        {
          "internalType": "bytes",
          "name": "",
          "type": "bytes"
        }
      ],
      "stateMutability": "view",
      "type": "function"
    },
    {
      "inputs": [
        {
          "internalType": "address",
          "name": "spender",
          "type": "address"
        },
        {
          "internalType": "uint256",
          "name": "addedValue",
          "type": "uint256"
        }
      ],
      "name": "increaseAllowance",
      "outputs": [
        {
          "internalType": "bool",
          "name": "",
          "type": "bool"
        }
      ],
      "stateMutability": "nonpayable",
      "type": "function"
    },
    {
      "inputs": [
        {
          "internalType": "uint16",
          "name": "_srcChainId",
          "type": "uint16"
        },
        {
          "internalType": "bytes",
          "name": "_srcAddress",
          "type": "bytes"
        }
      ],
      "name": "isTrustedRemote",
      "outputs": [
        {
          "internalType": "bool",
          "name": "",
          "type": "bool"
        }
      ],
      "stateMutability": "view",
      "type": "function"
    },
    {
      "inputs": [],
      "name": "lzEndpoint",
      "outputs": [
        {
          "internalType": "contract ILayerZeroEndpoint",
          "name": "",
          "type": "address"
        }
      ],
      "stateMutability": "view",
      "type": "function"
    },
    {
      "inputs": [
        {
          "internalType": "uint16",
          "name": "_srcChainId",
          "type": "uint16"
        },
        {
          "internalType": "bytes",
          "name": "_srcAddress",
          "type": "bytes"
        },
        {
          "internalType": "uint64",
          "name": "_nonce",
          "type": "uint64"
        },
        {
          "internalType": "bytes",
          "name": "_payload",
          "type": "bytes"
        }
      ],
      "name": "lzReceive",
      "outputs": [],
      "stateMutability": "nonpayable",
      "type": "function"
    },
    {
      "inputs": [
        {
          "internalType": "uint16",
          "name": "",
          "type": "uint16"
        },
        {
          "internalType": "uint256",
          "name": "",
          "type": "uint256"
        }
      ],
      "name": "minDstGasLookup",
      "outputs": [
        {
          "internalType": "uint256",
          "name": "",
          "type": "uint256"
        }
      ],
      "stateMutability": "view",
      "type": "function"
    },
    {
      "inputs": [],
      "name": "name",
      "outputs": [
        {
          "internalType": "string",
          "name": "",
          "type": "string"
        }
      ],
      "stateMutability": "view",
      "type": "function"
    },
    {
      "inputs": [
        {
          "internalType": "uint16",
          "name": "_srcChainId",
          "type": "uint16"
        },
        {
          "internalType": "bytes",
          "name": "_srcAddress",
          "type": "bytes"
        },
        {
          "internalType": "uint64",
          "name": "_nonce",
          "type": "uint64"
        },
        {
          "internalType": "bytes",
          "name": "_payload",
          "type": "bytes"
        }
      ],
      "name": "nonblockingLzReceive",
      "outputs": [],
      "stateMutability": "nonpayable",
      "type": "function"
    },
    {
      "inputs": [],
      "name": "owner",
      "outputs": [
        {
          "internalType": "address",
          "name": "",
          "type": "address"
        }
      ],
      "stateMutability": "view",
      "type": "function"
    },
    {
      "inputs": [],
      "name": "precrime",
      "outputs": [
        {
          "internalType": "address",
          "name": "",
          "type": "address"
        }
      ],
      "stateMutability": "view",
      "type": "function"
    },
    {
      "inputs": [
        {
          "internalType": "uint16",
          "name": "",
          "type": "uint16"
        }
      ],
      "name": "remoteBalances",
      "outputs": [
        {
          "internalType": "uint256",
          "name": "",
          "type": "uint256"
        }
      ],
      "stateMutability": "view",
      "type": "function"
    },
    {
      "inputs": [],
      "name": "renounceOwnership",
      "outputs": [],
      "stateMutability": "nonpayable",
      "type": "function"
    },
    {
      "inputs": [
        {
          "internalType": "uint16",
          "name": "_srcChainId",
          "type": "uint16"
        },
        {
          "internalType": "bytes",
          "name": "_srcAddress",
          "type": "bytes"
        },
        {
          "internalType": "uint64",
          "name": "_nonce",
          "type": "uint64"
        },
        {
          "internalType": "bytes",
          "name": "_payload",
          "type": "bytes"
        }
      ],
      "name": "retryMessage",
      "outputs": [],
      "stateMutability": "payable",
      "type": "function"
    },
    {
      "inputs": [
        {
          "internalType": "address",
          "name": "_from",
          "type": "address"
        },
        {
          "internalType": "uint16",
          "name": "_dstChainId",
          "type": "uint16"
        },
        {
          "internalType": "bytes",
          "name": "_toAddress",
          "type": "bytes"
        },
        {
          "internalType": "uint256",
          "name": "_amount",
          "type": "uint256"
        },
        {
          "internalType": "address payable",
          "name": "_refundAddress",
          "type": "address"
        },
        {
          "internalType": "address",
          "name": "_zroPaymentAddress",
          "type": "address"
        },
        {
          "internalType": "bytes",
          "name": "_adapterParams",
          "type": "bytes"
        }
      ],
      "name": "sendFrom",
      "outputs": [],
      "stateMutability": "payable",
      "type": "function"
    },
    {
      "inputs": [
        {
          "internalType": "uint16",
          "name": "_version",
          "type": "uint16"
        },
        {
          "internalType": "uint16",
          "name": "_chainId",
          "type": "uint16"
        },
        {
          "internalType": "uint256",
          "name": "_configType",
          "type": "uint256"
        },
        {
          "internalType": "bytes",
          "name": "_config",
          "type": "bytes"
        }
      ],
      "name": "setConfig",
      "outputs": [],
      "stateMutability": "nonpayable",
      "type": "function"
    },
    {
      "inputs": [
        {
          "internalType": "uint16",
          "name": "_dstChainId",
          "type": "uint16"
        },
        {
          "internalType": "uint16",
          "name": "_packetType",
          "type": "uint16"
        },
        {
          "internalType": "uint256",
          "name": "_minGas",
          "type": "uint256"
        }
      ],
      "name": "setMinDstGas",
      "outputs": [],
      "stateMutability": "nonpayable",
      "type": "function"
    },
    {
      "inputs": [
        {
          "internalType": "address",
          "name": "_precrime",
          "type": "address"
        }
      ],
      "name": "setPrecrime",
      "outputs": [],
      "stateMutability": "nonpayable",
      "type": "function"
    },
    {
      "inputs": [
        {
          "internalType": "uint16",
          "name": "_version",
          "type": "uint16"
        }
      ],
      "name": "setReceiveVersion",
      "outputs": [],
      "stateMutability": "nonpayable",
      "type": "function"
    },
    {
      "inputs": [
        {
          "internalType": "uint16",
          "name": "_version",
          "type": "uint16"
        }
      ],
      "name": "setSendVersion",
      "outputs": [],
      "stateMutability": "nonpayable",
      "type": "function"
    },
    {
      "inputs": [
        {
          "internalType": "uint16",
          "name": "_srcChainId",
          "type": "uint16"
        },
        {
          "internalType": "bytes",
          "name": "_path",
          "type": "bytes"
        }
      ],
      "name": "setTrustedRemote",
      "outputs": [],
      "stateMutability": "nonpayable",
      "type": "function"
    },
    {
      "inputs": [
        {
          "internalType": "uint16",
          "name": "_remoteChainId",
          "type": "uint16"
        },
        {
          "internalType": "bytes",
          "name": "_remoteAddress",
          "type": "bytes"
        }
      ],
      "name": "setTrustedRemoteAddress",
      "outputs": [],
      "stateMutability": "nonpayable",
      "type": "function"
    },
    {
      "inputs": [
        {
          "internalType": "bool",
          "name": "_useCustomAdapterParams",
          "type": "bool"
        }
      ],
      "name": "setUseCustomAdapterParams",
      "outputs": [],
      "stateMutability": "nonpayable",
      "type": "function"
    },
    {
      "inputs": [
        {
          "internalType": "bytes4",
          "name": "interfaceId",
          "type": "bytes4"
        }
      ],
      "name": "supportsInterface",
      "outputs": [
        {
          "internalType": "bool",
          "name": "",
          "type": "bool"
        }
      ],
      "stateMutability": "view",
      "type": "function"
    },
    {
      "inputs": [],
      "name": "symbol",
      "outputs": [
        {
          "internalType": "string",
          "name": "",
          "type": "string"
        }
      ],
      "stateMutability": "view",
      "type": "function"
    },
    {
      "inputs": [],
      "name": "totalSupply",
      "outputs": [
        {
          "internalType": "uint256",
          "name": "",
          "type": "uint256"
        }
      ],
      "stateMutability": "view",
      "type": "function"
    },
    {
      "inputs": [
        {
          "internalType": "address",
          "name": "to",
          "type": "address"
        },
        {
          "internalType": "uint256",
          "name": "amount",
          "type": "uint256"
        }
      ],
      "name": "transfer",
      "outputs": [
        {
          "internalType": "bool",
          "name": "",
          "type": "bool"
        }
      ],
      "stateMutability": "nonpayable",
      "type": "function"
    },
    {
      "inputs": [
        {
          "internalType": "address",
          "name": "from",
          "type": "address"
        },
        {
          "internalType": "address",
          "name": "to",
          "type": "address"
        },
        {
          "internalType": "uint256",
          "name": "amount",
          "type": "uint256"
        }
      ],
      "name": "transferFrom",
      "outputs": [
        {
          "internalType": "bool",
          "name": "",
          "type": "bool"
        }
      ],
      "stateMutability": "nonpayable",
      "type": "function"
    },
    {
      "inputs": [
        {
          "internalType": "address",
          "name": "newOwner",
          "type": "address"
        }
      ],
      "name": "transferOwnership",
      "outputs": [],
      "stateMutability": "nonpayable",
      "type": "function"
    },
    {
      "inputs": [
        {
          "internalType": "uint16",
          "name": "",
          "type": "uint16"
        }
      ],
      "name": "trustedRemoteLookup",
      "outputs": [
        {
          "internalType": "bytes",
          "name": "",
          "type": "bytes"
        }
      ],
      "stateMutability": "view",
      "type": "function"
    },
    {
      "inputs": [],
      "name": "useCustomAdapterParams",
      "outputs": [
        {
          "internalType": "bool",
          "name": "",
          "type": "bool"
        }
      ],
      "stateMutability": "view",
      "type": "function"
    }
  ],
  "transactionHash": "0x7e0e89de8c5145733f035c0b25268d6247af9124307a9999dbfe3ccd805a6838",
  "args": [
    "USDC.pft",
    "USDC.pft",
    "0xd682ECF100f6F4284138AA925348633B0611Ae21"
  ],
  "numDeployments": 1,
  "solcInputHash": "caa1a8540d3a34ac956c81ba72b66dd4",
  "bytecode": "0x60a06040523480156200001157600080fd5b50604051620038333803806200383383398101604081905262000034916200024c565b8282828080620000443362000089565b6001600160a01b03166080525050815162000067906009906020850190620000d9565b5080516200007d90600a906020840190620000d9565b50505050505062000316565b600080546001600160a01b038381166001600160a01b0319831681178455604051919092169283917f8be0079c531659141344cd1fd0a4f28419497f9722a3daafe3b4186f6b6457e09190a35050565b828054620000e790620002d9565b90600052602060002090601f0160209004810192826200010b576000855562000156565b82601f106200012657805160ff191683800117855562000156565b8280016001018555821562000156579182015b828111156200015657825182559160200191906001019062000139565b506200016492915062000168565b5090565b5b8082111562000164576000815560010162000169565b634e487b7160e01b600052604160045260246000fd5b600082601f830112620001a757600080fd5b81516001600160401b0380821115620001c457620001c46200017f565b604051601f8301601f19908116603f01168101908282118183101715620001ef57620001ef6200017f565b816040528381526020925086838588010111156200020c57600080fd5b600091505b8382101562000230578582018301518183018401529082019062000211565b83821115620002425760008385830101525b9695505050505050565b6000806000606084860312156200026257600080fd5b83516001600160401b03808211156200027a57600080fd5b620002888783880162000195565b945060208601519150808211156200029f57600080fd5b50620002ae8682870162000195565b604086015190935090506001600160a01b0381168114620002ce57600080fd5b809150509250925092565b600181811c90821680620002ee57607f821691505b602082108114156200031057634e487b7160e01b600052602260045260246000fd5b50919050565b6080516134c96200036a600039600081816106bf0152818161081101528181610b3001528181610bd101528181610c9901528181610e360152818161137a01528181611825015261234a01526134c96000f3fe6080604052600436106102505760003560e01c8063715018a611610139578063b353aaa7116100b6578063df2a5b3b1161007a578063df2a5b3b14610754578063eab45d9c14610774578063eb8d72b714610794578063ed629c5c146107b4578063f2fde38b146107ce578063f5ecbdbc146107ee57600080fd5b8063b353aaa7146106ad578063baf3292d146106e1578063cbed8b9c14610701578063d1deba1f14610721578063dd62ed3e1461073457600080fd5b806395d89b41116100fd57806395d89b41146106185780639f38369a1461062d578063a457c2d71461064d578063a6c3d1651461066d578063a9059cbb1461068d57600080fd5b8063715018a61461057c5780637533d788146105915780638da5cb5b146105b15780639358928b146105e3578063950c8a74146105f857600080fd5b8063313ce567116101d25780634c42899a116101965780634c42899a1461046f5780634c5c13921461049757806351905636146104c45780635b8c41e6146104d757806366ad5c8a1461052657806370a082311461054657600080fd5b8063313ce567146103de57806339509351146103fa5780633d8b38f61461041a57806342d65a8d1461043a578063447705151461045a57600080fd5b8063095ea7b311610219578063095ea7b31461033457806310ddb1371461035457806318160ddd1461037457806323b872dd146103895780632a205e3d146103a957600080fd5b80621d35671461025557806301ffc9a71461027757806306fdde03146102ac57806307810867146102ce57806307e0db1714610314575b600080fd5b34801561026157600080fd5b506102756102703660046129d0565b61080e565b005b34801561028357600080fd5b50610297610292366004612a65565b610a3f565b60405190151581526020015b60405180910390f35b3480156102b857600080fd5b506102c1610a7d565b6040516102a39190612ae7565b3480156102da57600080fd5b506103066102e9366004612afa565b600260209081526000928352604080842090915290825290205481565b6040519081526020016102a3565b34801561032057600080fd5b5061027561032f366004612b26565b610b0f565b34801561034057600080fd5b5061029761034f366004612b58565b610b98565b34801561036057600080fd5b5061027561036f366004612b26565b610bb0565b34801561038057600080fd5b50600854610306565b34801561039557600080fd5b506102976103a4366004612b76565b610c08565b3480156103b557600080fd5b506103c96103c4366004612bc7565b610c2c565b604080519283526020830191909152016102a3565b3480156103ea57600080fd5b50604051600681526020016102a3565b34801561040657600080fd5b50610297610415366004612b58565b610d29565b34801561042657600080fd5b50610297610435366004612c66565b610d4b565b34801561044657600080fd5b50610275610455366004612c66565b610e17565b34801561046657600080fd5b50610306600081565b34801561047b57600080fd5b50610484600081565b60405161ffff90911681526020016102a3565b3480156104a357600080fd5b506103066104b2366004612b26565b600b6020526000908152604090205481565b6102756104d2366004612cba565b610e9d565b3480156104e357600080fd5b506103066104f2366004612df0565b6004602090815260009384526040808520845180860184018051928152908401958401959095209452929052825290205481565b34801561053257600080fd5b506102756105413660046129d0565b610f22565b34801561055257600080fd5b50610306610561366004612e92565b6001600160a01b031660009081526006602052604090205490565b34801561058857600080fd5b50610275610ffe565b34801561059d57600080fd5b506102c16105ac366004612b26565b611012565b3480156105bd57600080fd5b506000546001600160a01b03165b6040516001600160a01b0390911681526020016102a3565b3480156105ef57600080fd5b506103066110ac565b34801561060457600080fd5b506003546105cb906001600160a01b031681565b34801561062457600080fd5b506102c16110bc565b34801561063957600080fd5b506102c1610648366004612b26565b6110cb565b34801561065957600080fd5b50610297610668366004612b58565b6111e2565b34801561067957600080fd5b50610275610688366004612c66565b61125d565b34801561069957600080fd5b506102976106a8366004612b58565b6112f0565b3480156106b957600080fd5b506105cb7f000000000000000000000000000000000000000000000000000000000000000081565b3480156106ed57600080fd5b506102756106fc366004612e92565b6112fe565b34801561070d57600080fd5b5061027561071c366004612eaf565b61135b565b61027561072f3660046129d0565b6113e5565b34801561074057600080fd5b5061030661074f366004612f21565b6115fb565b34801561076057600080fd5b5061027561076f366004612f5a565b611626565b34801561078057600080fd5b5061027561078f366004612f8a565b6116d8565b3480156107a057600080fd5b506102756107af366004612c66565b611721565b3480156107c057600080fd5b506005546102979060ff1681565b3480156107da57600080fd5b506102756107e9366004612e92565b61177b565b3480156107fa57600080fd5b506102c1610809366004612fa5565b6117f4565b337f00000000000000000000000000000000000000000000000000000000000000006001600160a01b03161461088b5760405162461bcd60e51b815260206004820152601e60248201527f4c7a4170703a20696e76616c696420656e64706f696e742063616c6c6572000060448201526064015b60405180910390fd5b61ffff8616600090815260016020526040812080546108a990612ff6565b80601f01602080910402602001604051908101604052809291908181526020018280546108d590612ff6565b80156109225780601f106108f757610100808354040283529160200191610922565b820191906000526020600020905b81548152906001019060200180831161090557829003601f168201915b5050505050905080518686905014801561093d575060008151115b801561096557508051602082012060405161095b9088908890613031565b6040518091039020145b6109c05760405162461bcd60e51b815260206004820152602660248201527f4c7a4170703a20696e76616c696420736f757263652073656e64696e6720636f6044820152651b9d1c9858dd60d21b6064820152608401610882565b610a368787878080601f01602080910402602001604051908101604052809392919081815260200183838082843760009201919091525050604080516020601f8a018190048102820181019092528881528a9350915088908890819084018382808284376000920191909152506118a592505050565b50505050505050565b60006001600160e01b031982161580610a6857506001600160e01b031982166336372b0760e01b145b80610a775750610a77826119af565b92915050565b606060098054610a8c90612ff6565b80601f0160208091040260200160405190810160405280929190818152602001828054610ab890612ff6565b8015610b055780601f10610ada57610100808354040283529160200191610b05565b820191906000526020600020905b815481529060010190602001808311610ae857829003601f168201915b5050505050905090565b610b176119e4565b6040516307e0db1760e01b815261ffff821660048201527f00000000000000000000000000000000000000000000000000000000000000006001600160a01b0316906307e0db17906024015b600060405180830381600087803b158015610b7d57600080fd5b505af1158015610b91573d6000803e3d6000fd5b5050505050565b600033610ba6818585611a3e565b5060019392505050565b610bb86119e4565b6040516310ddb13760e01b815261ffff821660048201527f00000000000000000000000000000000000000000000000000000000000000006001600160a01b0316906310ddb13790602401610b63565b600033610c16858285611b62565b610c21858585611bdc565b506001949350505050565b6040516001600160601b03193360601b16602082015260009081908190819060340160408051601f1981840301815290829052610c7292918c908c908c9060200161306a565b60408051601f198184030181529082905263040a7bb160e41b825291506001600160a01b037f000000000000000000000000000000000000000000000000000000000000000016906340a7bb1090610cd8908d90309086908c908c908c906004016130ad565b6040805180830381865afa158015610cf4573d6000803e3d6000fd5b505050506040513d601f19601f82011682018060405250810190610d189190613103565b925092505097509795505050505050565b600033610ba6818585610d3c83836115fb565b610d46919061313d565b611a3e565b61ffff831660009081526001602052604081208054829190610d6c90612ff6565b80601f0160208091040260200160405190810160405280929190818152602001828054610d9890612ff6565b8015610de55780601f10610dba57610100808354040283529160200191610de5565b820191906000526020600020905b815481529060010190602001808311610dc857829003601f168201915b505050505090508383604051610dfc929190613031565b60405180910390208180519060200120149150509392505050565b610e1f6119e4565b6040516342d65a8d60e01b81526001600160a01b037f000000000000000000000000000000000000000000000000000000000000000016906342d65a8d90610e6f90869086908690600401613155565b600060405180830381600087803b158015610e8957600080fd5b505af1158015610a36573d6000803e3d6000fd5b610f17898989898080601f01602080910402602001604051908101604052809392919081815260200183838082843760009201919091525050604080516020601f8a018190048102820181019092528881528c93508b92508a918a908a9081908401838280828437600092019190915250611daa92505050565b505050505050505050565b333014610f805760405162461bcd60e51b815260206004820152602660248201527f4e6f6e626c6f636b696e674c7a4170703a2063616c6c6572206d7573742062656044820152650204c7a4170760d41b6064820152608401610882565b610ff68686868080601f01602080910402602001604051908101604052809392919081815260200183838082843760009201919091525050604080516020601f890181900481028201810190925287815289935091508790879081908401838280828437600092019190915250611e8c92505050565b505050505050565b6110066119e4565b6110106000611ef3565b565b6001602052600090815260409020805461102b90612ff6565b80601f016020809104026020016040519081016040528092919081815260200182805461105790612ff6565b80156110a45780601f10611079576101008083540402835291602001916110a4565b820191906000526020600020905b81548152906001019060200180831161108757829003601f168201915b505050505081565b60006110b760085490565b905090565b6060600a8054610a8c90612ff6565b61ffff81166000908152600160205260408120805460609291906110ee90612ff6565b80601f016020809104026020016040519081016040528092919081815260200182805461111a90612ff6565b80156111675780601f1061113c57610100808354040283529160200191611167565b820191906000526020600020905b81548152906001019060200180831161114a57829003601f168201915b505050505090508051600014156111c05760405162461bcd60e51b815260206004820152601d60248201527f4c7a4170703a206e6f20747275737465642070617468207265636f72640000006044820152606401610882565b6111db6000601483516111d39190613173565b839190611f43565b9392505050565b600033816111f082866115fb565b9050838110156112505760405162461bcd60e51b815260206004820152602560248201527f45524332303a2064656372656173656420616c6c6f77616e63652062656c6f77604482015264207a65726f60d81b6064820152608401610882565b610c218286868403611a3e565b6112656119e4565b81813060405160200161127a9392919061318a565b60408051601f1981840301815291815261ffff851660009081526001602090815291902082516112af9391929091019061284f565b507f8c0400cfe2d1199b1a725c78960bcc2a344d869b80590d0f2bd005db15a572ce8383836040516112e393929190613155565b60405180910390a1505050565b600033610ba6818585611bdc565b6113066119e4565b600380546001600160a01b0319166001600160a01b0383169081179091556040519081527f5db758e995a17ec1ad84bdef7e8c3293a0bd6179bcce400dff5d4c3d87db726b906020015b60405180910390a150565b6113636119e4565b6040516332fb62e760e21b81526001600160a01b037f0000000000000000000000000000000000000000000000000000000000000000169063cbed8b9c906113b790889088908890889088906004016131ab565b600060405180830381600087803b1580156113d157600080fd5b505af1158015610f17573d6000803e3d6000fd5b61ffff861660009081526004602052604080822090516114089088908890613031565b90815260408051602092819003830190206001600160401b038716600090815292529020549050806114885760405162461bcd60e51b815260206004820152602360248201527f4e6f6e626c6f636b696e674c7a4170703a206e6f2073746f726564206d65737360448201526261676560e81b6064820152608401610882565b808383604051611499929190613031565b6040518091039020146114f85760405162461bcd60e51b815260206004820152602160248201527f4e6f6e626c6f636b696e674c7a4170703a20696e76616c6964207061796c6f616044820152601960fa1b6064820152608401610882565b61ffff8716600090815260046020526040808220905161151b9089908990613031565b90815260408051602092819003830181206001600160401b038916600090815290845282902093909355601f880182900482028301820190528682526115b3918991899089908190840183828082843760009201919091525050604080516020601f8a018190048102820181019092528881528a935091508890889081908401838280828437600092019190915250611e8c92505050565b7fc264d91f3adc5588250e1551f547752ca0cfa8f6b530d243b9f9f4cab10ea8e587878787856040516115ea9594939291906131e4565b60405180910390a150505050505050565b6001600160a01b03918216600090815260076020908152604080832093909416825291909152205490565b61162e6119e4565b600081116116765760405162461bcd60e51b81526020600482015260156024820152744c7a4170703a20696e76616c6964206d696e47617360581b6044820152606401610882565b61ffff83811660008181526002602090815260408083209487168084529482529182902085905581519283528201929092529081018290527f9d5c7c0b934da8fefa9c7760c98383778a12dfbfc0c3b3106518f43fb9508ac0906060016112e3565b6116e06119e4565b6005805460ff19168215159081179091556040519081527f1584ad594a70cbe1e6515592e1272a987d922b097ead875069cebe8b40c004a490602001611350565b6117296119e4565b61ffff831660009081526001602052604090206117479083836128d3565b507ffa41487ad5d6728f0b19276fa1eddc16558578f5109fc39d2dc33c3230470dab8383836040516112e393929190613155565b6117836119e4565b6001600160a01b0381166117e85760405162461bcd60e51b815260206004820152602660248201527f4f776e61626c653a206e6577206f776e657220697320746865207a65726f206160448201526564647265737360d01b6064820152608401610882565b6117f181611ef3565b50565b604051633d7b2f6f60e21b815261ffff808616600483015284166024820152306044820152606481018290526060907f00000000000000000000000000000000000000000000000000000000000000006001600160a01b03169063f5ecbdbc90608401600060405180830381865afa158015611874573d6000803e3d6000fd5b505050506040513d6000823e601f3d908101601f1916820160405261189c919081019061326c565b95945050505050565b6000806119085a60966366ad5c8a60e01b898989896040516024016118cd94939291906132a0565b60408051601f198184030181529190526020810180516001600160e01b03166001600160e01b03199093169290921790915230929190612050565b9150915081610ff6578280519060200120600460008861ffff1661ffff1681526020019081526020016000208660405161194291906132de565b9081526040805191829003602090810183206001600160401b0389166000908152915220919091557fe183f33de2837795525b4792ca4cd60535bd77c53b7e7030060bfcf5734d6b0c9061199f90889088908890889087906132fa565b60405180910390a1505050505050565b60006001600160e01b031982166301d1d13560e71b1480610a7757506301ffc9a760e01b6001600160e01b0319831614610a77565b6000546001600160a01b031633146110105760405162461bcd60e51b815260206004820181905260248201527f4f776e61626c653a2063616c6c6572206973206e6f7420746865206f776e65726044820152606401610882565b6001600160a01b038316611aa05760405162461bcd60e51b8152602060048201526024808201527f45524332303a20617070726f76652066726f6d20746865207a65726f206164646044820152637265737360e01b6064820152608401610882565b6001600160a01b038216611b015760405162461bcd60e51b815260206004820152602260248201527f45524332303a20617070726f766520746f20746865207a65726f206164647265604482015261737360f01b6064820152608401610882565b6001600160a01b0383811660008181526007602090815260408083209487168084529482529182902085905590518481527f8c5be1e5ebec7d5bd14f71427d1e84f3dd0314c0f7b2291e5b200ac8c7c3b925910160405180910390a3505050565b6000611b6e84846115fb565b90506000198114611bd65781811015611bc95760405162461bcd60e51b815260206004820152601d60248201527f45524332303a20696e73756666696369656e7420616c6c6f77616e63650000006044820152606401610882565b611bd68484848403611a3e565b50505050565b6001600160a01b038316611c405760405162461bcd60e51b815260206004820152602560248201527f45524332303a207472616e736665722066726f6d20746865207a65726f206164604482015264647265737360d81b6064820152608401610882565b6001600160a01b038216611ca25760405162461bcd60e51b815260206004820152602360248201527f45524332303a207472616e7366657220746f20746865207a65726f206164647260448201526265737360e81b6064820152608401610882565b6001600160a01b03831660009081526006602052604090205481811015611d1a5760405162461bcd60e51b815260206004820152602660248201527f45524332303a207472616e7366657220616d6f756e7420657863656564732062604482015265616c616e636560d01b6064820152608401610882565b6001600160a01b03808516600090815260066020526040808220858503905591851681529081208054849290611d5190849061313d565b92505081905550826001600160a01b0316846001600160a01b03167fddf252ad1be2c89b69c2b068fc378daa952ba7f163c4a11628f55a4df523b3ef84604051611d9d91815260200190565b60405180910390a3611bd6565b611db88660008360006120df565b611dc48787878761215d565b6040516001600160601b0319606089901b166020820152600090819060340160408051601f1981840301815290829052611e05929189908990602001613358565b6040516020818303038152906040529050611e2487828686863461222b565b85604051611e3291906132de565b6040518091039020886001600160a01b03168861ffff167f39a4c66499bcf4b56d79f0dde8ed7a9d4925a0df55825206b2b8531e202be0d088604051611e7a91815260200190565b60405180910390a45050505050505050565b602081015161ffff8116611eab57611ea6858585856123c6565b610b91565b60405162461bcd60e51b815260206004820152601c60248201527f4f4654436f72653a20756e6b6e6f776e207061636b65742074797065000000006044820152606401610882565b600080546001600160a01b038381166001600160a01b0319831681178455604051919092169283917f8be0079c531659141344cd1fd0a4f28419497f9722a3daafe3b4186f6b6457e09190a35050565b606081611f5181601f61313d565b1015611f905760405162461bcd60e51b815260206004820152600e60248201526d736c6963655f6f766572666c6f7760901b6044820152606401610882565b611f9a828461313d565b84511015611fde5760405162461bcd60e51b8152602060048201526011602482015270736c6963655f6f75744f66426f756e647360781b6044820152606401610882565b606082158015611ffd5760405191506000825260208201604052612047565b6040519150601f8416801560200281840101858101878315602002848b0101015b8183101561203657805183526020928301920161201e565b5050858452601f01601f1916604052505b50949350505050565b6000606060008060008661ffff166001600160401b0381111561207557612075612d83565b6040519080825280601f01601f19166020018201604052801561209f576020820181803683370190505b50905060008087516020890160008d8df191503d9250868311156120c1578692505b828152826000602083013e909890975095505050505050565b505050565b60055460ff16156120ff576120fa848461ffff168484612453565b611bd6565b815115611bd65760405162461bcd60e51b815260206004820152602660248201527f4f4654436f72653a205f61646170746572506172616d73206d7573742062652060448201526532b6b83a3c9760d11b6064820152608401610882565b336001600160a01b038516811461217957612179858284611b62565b61ffff84166000908152600b60205260409020548211156121f85760405162461bcd60e51b815260206004820152603360248201527f577261707065644f46543a204e6f7420656e6f7567682062616c616e6365206f60448201527237103232b9ba34b730ba34b7b71031b430b4b760691b6064820152608401610882565b61ffff84166000908152600b60205260408120805484929061221b908490613173565b90915550610b919050858361252e565b61ffff86166000908152600160205260408120805461224990612ff6565b80601f016020809104026020016040519081016040528092919081815260200182805461227590612ff6565b80156122c25780601f10612297576101008083540402835291602001916122c2565b820191906000526020600020905b8154815290600101906020018083116122a557829003601f168201915b505050505090508051600014156123345760405162461bcd60e51b815260206004820152603060248201527f4c7a4170703a2064657374696e6174696f6e20636861696e206973206e6f742060448201526f61207472757374656420736f7572636560801b6064820152608401610882565b60405162c5803160e81b81526001600160a01b037f0000000000000000000000000000000000000000000000000000000000000000169063c580310090849061238b908b9086908c908c908c908c90600401613399565b6000604051808303818588803b1580156123a457600080fd5b505af11580156123b8573d6000803e3d6000fd5b505050505050505050505050565b6000806000838060200190518101906123df91906133f3565b91955093509150600090506123f4838261267c565b90506124018882846126e1565b806001600160a01b03168861ffff167f776434b505c7beb3db155c58df6c88985bf7c31730767e43ec773005059fed7a8685604051612441929190613471565b60405180910390a35050505050505050565b600061245e83612714565b61ffff861660009081526002602090815260408083208884529091528120549192509061248c90849061313d565b9050600081116124de5760405162461bcd60e51b815260206004820152601a60248201527f4c7a4170703a206d696e4761734c696d6974206e6f74207365740000000000006044820152606401610882565b80821015610ff65760405162461bcd60e51b815260206004820152601b60248201527f4c7a4170703a20676173206c696d697420697320746f6f206c6f7700000000006044820152606401610882565b6001600160a01b03821661258e5760405162461bcd60e51b815260206004820152602160248201527f45524332303a206275726e2066726f6d20746865207a65726f206164647265736044820152607360f81b6064820152608401610882565b6001600160a01b038216600090815260066020526040902054818110156126025760405162461bcd60e51b815260206004820152602260248201527f45524332303a206275726e20616d6f756e7420657863656564732062616c616e604482015261636560f01b6064820152608401610882565b6001600160a01b0383166000908152600660205260408120838303905560088054849290612631908490613173565b90915550506040518281526000906001600160a01b038516907fddf252ad1be2c89b69c2b068fc378daa952ba7f163c4a11628f55a4df523b3ef9060200160405180910390a3505050565b600061268982601461313d565b835110156126d15760405162461bcd60e51b8152602060048201526015602482015274746f416464726573735f6f75744f66426f756e647360581b6044820152606401610882565b500160200151600160601b900490565b61ffff83166000908152600b60205260408120805483929061270490849061313d565b909155506120da90508282612770565b60006022825110156127685760405162461bcd60e51b815260206004820152601c60248201527f4c7a4170703a20696e76616c69642061646170746572506172616d73000000006044820152606401610882565b506022015190565b6001600160a01b0382166127c65760405162461bcd60e51b815260206004820152601f60248201527f45524332303a206d696e7420746f20746865207a65726f2061646472657373006044820152606401610882565b80600860008282546127d8919061313d565b90915550506001600160a01b0382166000908152600660205260408120805483929061280590849061313d565b90915550506040518181526001600160a01b038316906000907fddf252ad1be2c89b69c2b068fc378daa952ba7f163c4a11628f55a4df523b3ef9060200160405180910390a35050565b82805461285b90612ff6565b90600052602060002090601f01602090048101928261287d57600085556128c3565b82601f1061289657805160ff19168380011785556128c3565b828001600101855582156128c3579182015b828111156128c35782518255916020019190600101906128a8565b506128cf929150612947565b5090565b8280546128df90612ff6565b90600052602060002090601f01602090048101928261290157600085556128c3565b82601f1061291a5782800160ff198235161785556128c3565b828001600101855582156128c3579182015b828111156128c357823582559160200191906001019061292c565b5b808211156128cf5760008155600101612948565b61ffff811681146117f157600080fd5b60008083601f84011261297e57600080fd5b5081356001600160401b0381111561299557600080fd5b6020830191508360208285010111156129ad57600080fd5b9250929050565b80356001600160401b03811681146129cb57600080fd5b919050565b600080600080600080608087890312156129e957600080fd5b86356129f48161295c565b955060208701356001600160401b0380821115612a1057600080fd5b612a1c8a838b0161296c565b9097509550859150612a3060408a016129b4565b94506060890135915080821115612a4657600080fd5b50612a5389828a0161296c565b979a9699509497509295939492505050565b600060208284031215612a7757600080fd5b81356001600160e01b0319811681146111db57600080fd5b60005b83811015612aaa578181015183820152602001612a92565b83811115611bd65750506000910152565b60008151808452612ad3816020860160208601612a8f565b601f01601f19169290920160200192915050565b6020815260006111db6020830184612abb565b60008060408385031215612b0d57600080fd5b8235612b188161295c565b946020939093013593505050565b600060208284031215612b3857600080fd5b81356111db8161295c565b6001600160a01b03811681146117f157600080fd5b60008060408385031215612b6b57600080fd5b8235612b1881612b43565b600080600060608486031215612b8b57600080fd5b8335612b9681612b43565b92506020840135612ba681612b43565b929592945050506040919091013590565b803580151581146129cb57600080fd5b600080600080600080600060a0888a031215612be257600080fd5b8735612bed8161295c565b965060208801356001600160401b0380821115612c0957600080fd5b612c158b838c0161296c565b909850965060408a01359550869150612c3060608b01612bb7565b945060808a0135915080821115612c4657600080fd5b50612c538a828b0161296c565b989b979a50959850939692959293505050565b600080600060408486031215612c7b57600080fd5b8335612c868161295c565b925060208401356001600160401b03811115612ca157600080fd5b612cad8682870161296c565b9497909650939450505050565b600080600080600080600080600060e08a8c031215612cd857600080fd5b8935612ce381612b43565b985060208a0135612cf38161295c565b975060408a01356001600160401b0380821115612d0f57600080fd5b612d1b8d838e0161296c565b909950975060608c0135965060808c01359150612d3782612b43565b90945060a08b013590612d4982612b43565b90935060c08b01359080821115612d5f57600080fd5b50612d6c8c828d0161296c565b915080935050809150509295985092959850929598565b634e487b7160e01b600052604160045260246000fd5b604051601f8201601f191681016001600160401b0381118282101715612dc157612dc1612d83565b604052919050565b60006001600160401b03821115612de257612de2612d83565b50601f01601f191660200190565b600080600060608486031215612e0557600080fd5b8335612e108161295c565b925060208401356001600160401b03811115612e2b57600080fd5b8401601f81018613612e3c57600080fd5b8035612e4f612e4a82612dc9565b612d99565b818152876020838501011115612e6457600080fd5b81602084016020830137600060208383010152809450505050612e89604085016129b4565b90509250925092565b600060208284031215612ea457600080fd5b81356111db81612b43565b600080600080600060808688031215612ec757600080fd5b8535612ed28161295c565b94506020860135612ee28161295c565b93506040860135925060608601356001600160401b03811115612f0457600080fd5b612f108882890161296c565b969995985093965092949392505050565b60008060408385031215612f3457600080fd5b8235612f3f81612b43565b91506020830135612f4f81612b43565b809150509250929050565b600080600060608486031215612f6f57600080fd5b8335612f7a8161295c565b92506020840135612ba68161295c565b600060208284031215612f9c57600080fd5b6111db82612bb7565b60008060008060808587031215612fbb57600080fd5b8435612fc68161295c565b93506020850135612fd68161295c565b92506040850135612fe681612b43565b9396929550929360600135925050565b600181811c9082168061300a57607f821691505b6020821081141561302b57634e487b7160e01b600052602260045260246000fd5b50919050565b8183823760009101908152919050565b81835281816020850137506000828201602090810191909152601f909101601f19169091010190565b61ffff861681526080602082015260006130876080830187612abb565b828103604084015261309a818688613041565b9150508260608301529695505050505050565b61ffff871681526001600160a01b038616602082015260a0604082018190526000906130db90830187612abb565b851515606084015282810360808401526130f6818587613041565b9998505050505050505050565b6000806040838503121561311657600080fd5b505080516020909101519092909150565b634e487b7160e01b600052601160045260246000fd5b6000821982111561315057613150613127565b500190565b61ffff8416815260406020820152600061189c604083018486613041565b60008282101561318557613185613127565b500390565b8284823760609190911b6001600160601b0319169101908152601401919050565b600061ffff8088168352808716602084015250846040830152608060608301526131d9608083018486613041565b979650505050505050565b61ffff86168152608060208201526000613202608083018688613041565b6001600160401b0394909416604083015250606001529392505050565b600082601f83011261323057600080fd5b815161323e612e4a82612dc9565b81815284602083860101111561325357600080fd5b613264826020830160208701612a8f565b949350505050565b60006020828403121561327e57600080fd5b81516001600160401b0381111561329457600080fd5b6132648482850161321f565b61ffff851681526080602082015260006132bd6080830186612abb565b6001600160401b038516604084015282810360608401526131d98185612abb565b600082516132f0818460208701612a8f565b9190910192915050565b61ffff8616815260a06020820152600061331760a0830187612abb565b6001600160401b038616604084015282810360608401526133388186612abb565b9050828103608084015261334c8185612abb565b98975050505050505050565b61ffff851681526080602082015260006133756080830186612abb565b82810360408401526133878186612abb565b91505082606083015295945050505050565b61ffff8716815260c0602082015260006133b660c0830188612abb565b82810360408401526133c88188612abb565b6001600160a01b0387811660608601528616608085015283810360a085015290506130f68185612abb565b6000806000806080858703121561340957600080fd5b84516134148161295c565b60208601519094506001600160401b038082111561343157600080fd5b61343d8883890161321f565b9450604087015191508082111561345357600080fd5b506134608782880161321f565b606096909601519497939650505050565b6040815260006134846040830185612abb565b9050826020830152939250505056fea2646970667358221220e3f4dac28c50ed6de117c80e844d26b1b97ed49dfc79c80ebf13876a6231743164736f6c634300080c0033",
  "devdoc": {
    "kind": "dev",
    "methods": {
      "allowance(address,address)": {
        "details": "See {IERC20-allowance}."
      },
      "approve(address,uint256)": {
        "details": "See {IERC20-approve}. NOTE: If `amount` is the maximum `uint256`, the allowance is not updated on `transferFrom`. This is semantically equivalent to an infinite approval. Requirements: - `spender` cannot be the zero address."
      },
      "balanceOf(address)": {
        "details": "See {IERC20-balanceOf}."
      },
      "circulatingSupply()": {
        "details": "returns the circulating amount of tokens on current chain"
      },
      "decimals()": {
        "details": "Returns the number of decimals used to get its user representation. For example, if `decimals` equals `2`, a balance of `505` tokens should be displayed to a user as `5.05` (`505 / 10 ** 2`). Tokens usually opt for a value of 18, imitating the relationship between Ether and Wei. This is the value {ERC20} uses, unless this function is overridden; NOTE: This information is only used for _display_ purposes: it in no way affects any of the arithmetic of the contract, including {IERC20-balanceOf} and {IERC20-transfer}."
      },
      "decreaseAllowance(address,uint256)": {
        "details": "Atomically decreases the allowance granted to `spender` by the caller. This is an alternative to {approve} that can be used as a mitigation for problems described in {IERC20-approve}. Emits an {Approval} event indicating the updated allowance. Requirements: - `spender` cannot be the zero address. - `spender` must have allowance for the caller of at least `subtractedValue`."
      },
      "estimateSendFee(uint16,bytes,uint256,bool,bytes)": {
        "details": "estimate send token `_tokenId` to (`_dstChainId`, `_toAddress`) _dstChainId - L0 defined chain id to send tokens too _toAddress - dynamic bytes array which contains the address to whom you are sending tokens to on the dstChain _amount - amount of the tokens to transfer _useZro - indicates to use zro to pay L0 fees _adapterParam - flexible bytes array to indicate messaging adapter services in L0"
      },
      "increaseAllowance(address,uint256)": {
        "details": "Atomically increases the allowance granted to `spender` by the caller. This is an alternative to {approve} that can be used as a mitigation for problems described in {IERC20-approve}. Emits an {Approval} event indicating the updated allowance. Requirements: - `spender` cannot be the zero address."
      },
      "name()": {
        "details": "Returns the name of the token."
      },
      "owner()": {
        "details": "Returns the address of the current owner."
      },
      "renounceOwnership()": {
        "details": "Leaves the contract without owner. It will not be possible to call `onlyOwner` functions anymore. Can only be called by the current owner. NOTE: Renouncing ownership will leave the contract without an owner, thereby removing any functionality that is only available to the owner."
      },
      "sendFrom(address,uint16,bytes,uint256,address,address,bytes)": {
        "details": "send `_amount` amount of token to (`_dstChainId`, `_toAddress`) from `_from` `_from` the owner of token `_dstChainId` the destination chain identifier `_toAddress` can be any size depending on the `dstChainId`. `_amount` the quantity of tokens in wei `_refundAddress` the address LayerZero refunds if too much message fee is sent `_zroPaymentAddress` set to address(0x0) if not paying in ZRO (LayerZero Token) `_adapterParams` is a flexible bytes array to indicate messaging adapter services"
      },
      "symbol()": {
        "details": "Returns the symbol of the token, usually a shorter version of the name."
      },
      "totalSupply()": {
        "details": "See {IERC20-totalSupply}."
      },
      "transfer(address,uint256)": {
        "details": "See {IERC20-transfer}. Requirements: - `to` cannot be the zero address. - the caller must have a balance of at least `amount`."
      },
      "transferFrom(address,address,uint256)": {
        "details": "See {IERC20-transferFrom}. Emits an {Approval} event indicating the updated allowance. This is not required by the EIP. See the note at the beginning of {ERC20}. NOTE: Does not update the allowance if the current allowance is the maximum `uint256`. Requirements: - `from` and `to` cannot be the zero address. - `from` must have a balance of at least `amount`. - the caller must have allowance for ``from``'s tokens of at least `amount`."
      },
      "transferOwnership(address)": {
        "details": "Transfers ownership of the contract to a new account (`newOwner`). Can only be called by the current owner."
      }
    },
    "version": 1
  },
  "userdoc": {
    "kind": "user",
    "methods": {},
    "version": 1
  },
  "storageLayout": {
    "storage": [
      {
        "astId": 2624,
        "contract": "contracts/token/oft/extension/WrappedOFT.sol:WrappedOFT",
        "label": "_owner",
        "offset": 0,
        "slot": "0",
        "type": "t_address"
      },
      {
        "astId": 11349,
        "contract": "contracts/token/oft/extension/WrappedOFT.sol:WrappedOFT",
        "label": "trustedRemoteLookup",
        "offset": 0,
        "slot": "1",
        "type": "t_mapping(t_uint16,t_bytes_storage)"
      },
      {
        "astId": 11355,
        "contract": "contracts/token/oft/extension/WrappedOFT.sol:WrappedOFT",
        "label": "minDstGasLookup",
        "offset": 0,
        "slot": "2",
        "type": "t_mapping(t_uint16,t_mapping(t_uint256,t_uint256))"
      },
      {
        "astId": 11357,
        "contract": "contracts/token/oft/extension/WrappedOFT.sol:WrappedOFT",
        "label": "precrime",
        "offset": 0,
        "slot": "3",
        "type": "t_address"
      },
      {
        "astId": 11842,
        "contract": "contracts/token/oft/extension/WrappedOFT.sol:WrappedOFT",
        "label": "failedMessages",
        "offset": 0,
        "slot": "4",
        "type": "t_mapping(t_uint16,t_mapping(t_bytes_memory_ptr,t_mapping(t_uint64,t_bytes32)))"
      },
      {
        "astId": 14472,
        "contract": "contracts/token/oft/extension/WrappedOFT.sol:WrappedOFT",
        "label": "useCustomAdapterParams",
        "offset": 0,
        "slot": "5",
        "type": "t_bool"
      },
      {
        "astId": 4294,
        "contract": "contracts/token/oft/extension/WrappedOFT.sol:WrappedOFT",
        "label": "_balances",
        "offset": 0,
        "slot": "6",
        "type": "t_mapping(t_address,t_uint256)"
      },
      {
        "astId": 4300,
        "contract": "contracts/token/oft/extension/WrappedOFT.sol:WrappedOFT",
        "label": "_allowances",
        "offset": 0,
        "slot": "7",
        "type": "t_mapping(t_address,t_mapping(t_address,t_uint256))"
      },
      {
        "astId": 4302,
        "contract": "contracts/token/oft/extension/WrappedOFT.sol:WrappedOFT",
        "label": "_totalSupply",
        "offset": 0,
        "slot": "8",
        "type": "t_uint256"
      },
      {
        "astId": 4304,
        "contract": "contracts/token/oft/extension/WrappedOFT.sol:WrappedOFT",
        "label": "_name",
        "offset": 0,
        "slot": "9",
        "type": "t_string_storage"
      },
      {
        "astId": 4306,
        "contract": "contracts/token/oft/extension/WrappedOFT.sol:WrappedOFT",
        "label": "_symbol",
        "offset": 0,
        "slot": "10",
        "type": "t_string_storage"
      },
      {
        "astId": 16625,
        "contract": "contracts/token/oft/extension/WrappedOFT.sol:WrappedOFT",
        "label": "remoteBalances",
        "offset": 0,
        "slot": "11",
        "type": "t_mapping(t_uint16,t_uint256)"
      }
    ],
    "types": {
      "t_address": {
        "encoding": "inplace",
        "label": "address",
        "numberOfBytes": "20"
      },
      "t_bool": {
        "encoding": "inplace",
        "label": "bool",
        "numberOfBytes": "1"
      },
      "t_bytes32": {
        "encoding": "inplace",
        "label": "bytes32",
        "numberOfBytes": "32"
      },
      "t_bytes_memory_ptr": {
        "encoding": "bytes",
        "label": "bytes",
        "numberOfBytes": "32"
      },
      "t_bytes_storage": {
        "encoding": "bytes",
        "label": "bytes",
        "numberOfBytes": "32"
      },
      "t_mapping(t_address,t_mapping(t_address,t_uint256))": {
        "encoding": "mapping",
        "key": "t_address",
        "label": "mapping(address => mapping(address => uint256))",
        "numberOfBytes": "32",
        "value": "t_mapping(t_address,t_uint256)"
      },
      "t_mapping(t_address,t_uint256)": {
        "encoding": "mapping",
        "key": "t_address",
        "label": "mapping(address => uint256)",
        "numberOfBytes": "32",
        "value": "t_uint256"
      },
      "t_mapping(t_bytes_memory_ptr,t_mapping(t_uint64,t_bytes32))": {
        "encoding": "mapping",
        "key": "t_bytes_memory_ptr",
        "label": "mapping(bytes => mapping(uint64 => bytes32))",
        "numberOfBytes": "32",
        "value": "t_mapping(t_uint64,t_bytes32)"
      },
      "t_mapping(t_uint16,t_bytes_storage)": {
        "encoding": "mapping",
        "key": "t_uint16",
        "label": "mapping(uint16 => bytes)",
        "numberOfBytes": "32",
        "value": "t_bytes_storage"
      },
      "t_mapping(t_uint16,t_mapping(t_bytes_memory_ptr,t_mapping(t_uint64,t_bytes32)))": {
        "encoding": "mapping",
        "key": "t_uint16",
        "label": "mapping(uint16 => mapping(bytes => mapping(uint64 => bytes32)))",
        "numberOfBytes": "32",
        "value": "t_mapping(t_bytes_memory_ptr,t_mapping(t_uint64,t_bytes32))"
      },
      "t_mapping(t_uint16,t_mapping(t_uint256,t_uint256))": {
        "encoding": "mapping",
        "key": "t_uint16",
        "label": "mapping(uint16 => mapping(uint256 => uint256))",
        "numberOfBytes": "32",
        "value": "t_mapping(t_uint256,t_uint256)"
      },
      "t_mapping(t_uint16,t_uint256)": {
        "encoding": "mapping",
        "key": "t_uint16",
        "label": "mapping(uint16 => uint256)",
        "numberOfBytes": "32",
        "value": "t_uint256"
      },
      "t_mapping(t_uint256,t_uint256)": {
        "encoding": "mapping",
        "key": "t_uint256",
        "label": "mapping(uint256 => uint256)",
        "numberOfBytes": "32",
        "value": "t_uint256"
      },
      "t_mapping(t_uint64,t_bytes32)": {
        "encoding": "mapping",
        "key": "t_uint64",
        "label": "mapping(uint64 => bytes32)",
        "numberOfBytes": "32",
        "value": "t_bytes32"
      },
      "t_string_storage": {
        "encoding": "bytes",
        "label": "string",
        "numberOfBytes": "32"
      },
      "t_uint16": {
        "encoding": "inplace",
        "label": "uint16",
        "numberOfBytes": "2"
      },
      "t_uint256": {
        "encoding": "inplace",
        "label": "uint256",
        "numberOfBytes": "32"
      },
      "t_uint64": {
        "encoding": "inplace",
        "label": "uint64",
        "numberOfBytes": "8"
      }
    }
  }
}